:100000000C9462000C948A000C948A000C948A0070
:100010000C948A000C948A000C948A000C948A0038
:100020000C948A000C948A000C948A000C948A0028
:100030000C948A000C948A000C948A000C948A0018
:100040000C94B0130C948A000C947E130C945813E7
:100050000C948A000C948A000C948A000C948A00F8
:100060000C94FA130C948A0000000000240027006E
:100070002A0000000000250028002B0000000000DE
:1000800023002600290004040404040404040202DA
:100090000202020203030303030301020408102007
:1000A0004080010204081020010204081020000012
:1000B0000008000201000003040700000000000027
:1000C0000000151511241FBECFEFD8E0DEBFCDBF55
:1000D00023E0AAEFB1E001C01D92A63FB207E1F70D
:1000E00011E0A0E0B1E0E2EFF4E302C005900D9270
:1000F000AA3FB107D9F710E0C2E6D0E004C02197CB
:10010000FE010E947F18C136D107C9F70E9431173E
:100110000C94771A0C940000FC01538D448D252F0C
:1001200030E0842F90E0821B930B541710F0CF9691
:10013000089501970895FC01918D828D981761F0C3
:10014000A28DAE0FBF2FB11D5D968C91928D9F5FDA
:100150009F73928F90E008958FEF9FEF0895FC01B9
:10016000918D828D981731F0828DE80FF11D858D6C
:1001700090E008958FEF9FEF0895FC01918D228DFF
:10018000892F90E0805C9F4F821B91098F73992784
:100190000895FC01A48DA80FB92FB11DA35ABF4F1C
:1001A0002C91848D90E001968F739927848FA68976
:1001B000B7892C93A089B1898C91837080648C93CA
:1001C000938D848D981306C00288F389E02D808179
:1001D0008F7D80830895EF92FF920F931F93CF93AB
:1001E000DF93EC0181E0888F9B8D8C8D98131AC072
:1001F000E889F989808185FF15C09FB7F894EE8959
:10020000FF896083E889F9898081837080648083B5
:100210009FBF81E090E0DF91CF911F910F91FF9000
:10022000EF900895F62E0B8D10E00F5F1F4F0F73A8
:100230001127E02E8C8D8E110CC00FB607FCFACF63
:10024000E889F989808185FFF5CFCE010E94C90038
:10025000F1CFEB8DEC0FFD2FF11DE35AFF4FF08234
:100260009FB7F8940B8FEA89FB8980818062CFCF9A
:10027000CF93DF93EC01888D8823B9F0AA89BB89DD
:10028000E889F9898C9185FD03C0808186FD0DC0C8
:100290000FB607FCF7CF8C9185FFF2CF808185FFE9
:1002A000EDCFCE010E94C900E9CFDF91CF91089533
:1002B0008FE792E00E94BD0021E0892B09F420E045
:1002C000822F089580E090E0892B29F00E94580148
:1002D00081110C9400000895DB0114964D915C91FE
:1002E00015976D917C91DC01ED91FC910280F38179
:1002F000E02D0994AF92BF92CF92DF92EF92FF92DE
:100300000F931F93CF93DF936C017B018B01040F3D
:10031000151FEB015E01AE18BF08C017D10759F0D9
:100320006991D601ED91FC910190F081E02DC6011B
:100330000995892B79F7C501DF91CF911F910F9115
:10034000FF90EF90DF90CF90BF90AF9008958330F3
:1003500081F028F4813099F08230A9F00895873037
:10036000A9F08830C9F08430B1F4809180008F7D8D
:1003700003C0809180008F7780938000089584B5BA
:100380008F7784BD089584B58F7DFBCF8091B000B9
:100390008F778093B00008958091B0008F7DF9CF62
:1003A000CF93DF93282F30E0F901E255FF4F84917E
:1003B000F901E656FF4FD491F901EA57FF4FC49176
:1003C000CC23A1F081110E94A701EC2FF0E0EE0FE9
:1003D000FF1FE458FF4FA591B491EC91ED2381E00C
:1003E00090E009F480E0DF91CF91089580E090E003
:1003F000FACF1F93CF93DF93282F30E0F901E25516
:10040000FF4F8491F901E656FF4FD491F901EA5765
:10041000FF4FC491CC23A9F0162F81110E94A70190
:10042000EC2FF0E0EE0FFF1FEE58FF4FA591B491B7
:100430008FB7F894EC91111108C0D095DE23DC93AE
:100440008FBFDF91CF911F910895DE2BF8CFCF930F
:10045000DF9390E0FC01E656FF4F24918A579F4FAF
:10046000FC0184918823D1F090E0880F991FFC0152
:10047000E859FF4FA591B491FC01EE58FF4FC5918B
:10048000D49161110EC09FB7F8948C91E22FE09542
:100490008E238C932881E223E8839FBFDF91CF9145
:1004A00008958FB7F894EC91E22BEC938FBFF6CFC1
:1004B0002FB7F89460917402709175028091760262
:1004C000909177022FBF089585ED8093BC008091B5
:1004D000BC0084FDFCCF10924902089520912502B2
:1004E000260F3327331F21323105ECF420914902C6
:1004F000FC0190E080E0243069F082E00895A09152
:1005000025022191AC014B5F5D4FA40FB52FB11DAA
:100510002C930196861798F380912502680F6093BB
:10052000250280E0089581E0089508958FEF9FEF00
:1005300008958FEF9FEF08958091040290E09195C8
:10054000819591090895CF93DF93CB01EA01642F40
:100550000E946E02CE01DF91CF910895CF93DF9379
:100560001F92CDB7DEB7698361E0CE0101960E948C
:100570006E0281E090E00F90DF91CF9108950F938C
:100580001F930E9458028B019C01409100025091E0
:100590000102609102027091030280912003909108
:1005A0002103A0912203B0912303041B150B260BFA
:1005B000370B083E134021053105C0F00196A11DFF
:1005C000B11D8093200390932103A0932203B09345
:1005D000230348515C4F6F4F7F4F4093000250936D
:1005E00001026093020270930302CBCF40911C037F
:1005F00050911D0360911E0370911F03841795078E
:10060000A607B70780F1E0912403F0912503309706
:1006100051F10995611571058105910579F1609395
:100620002003709321038093220390932303645D3E
:100630007E4F8F4F9F4F60931C0370931D038093D9
:100640001E0390931F0382E090E09093FF0180933C
:10065000FE010E9458026093000270930102809391
:100660000202909303026091200370912103809114
:100670002203909123031F910F91089580912003ED
:1006800090912103A0912203B0912303845D9E4F9A
:10069000AF4FBF4F80931C0390931D03A0931E0385
:1006A000B0931F0381E090E02091FE013091FF01A3
:1006B000232B11F490E080E09093FF018093FE01E2
:1006C000D2CF6F927F928F929F92AF92BF92CF9232
:1006D000DF92EF92FF920F931F93CF93DF936B0103
:1006E0007C01EA018CE3882E912CA12CB12CC7014E
:1006F000A50194010E9441186883CA01B901A501AE
:1007000094010E9441186983C701B60120E13EE0CF
:1007100040E050E00E944118CA01B90128E130E0F0
:1007200040E050E00E9441186A83C701B60120E80A
:1007300031E541E050E00E94411869017A01CA01A7
:10074000B9016C5F7F4F8F4F9F4F27E030E040E053
:1007500050E00E9441186F5F6B83812C912C5401F3
:1007600040E094E6692E712C00E911E0242F30E07E
:100770002E54384FF901E370FF273097F9F4C9017F
:10078000B3010E942D18892B31F4C901B8010E94D0
:100790002D18892B99F48EE691E0A0E0B0E0880E48
:1007A000991EAA1EBB1ED501C401AA27BB27C816C5
:1007B000D906EA06FB0638F04F5FD8CF8DE691E008
:1007C000A0E0B0E0ECCF4E83C90164E670E00E9487
:1007D0002D188C01C90160E971E00E942D18309735
:1007E00029F401151105E1F40097D1F04DE651E02F
:1007F00060E070E0841A950AA60AB70AC818D908FA
:10080000EA08FB08A6E1B1E020E0213071F430975E
:1008100091F50115110511F4009769F54DE106C038
:100820004EE651E060E070E0E5CF4C9150E070E0C2
:1008300060E031E0320FC416D506E606F70640F058
:10084000C41AD50AE60AF70A1196232F3C30E9F6B6
:100850002F5F2D83C394CC82DF91CF911F910F9195
:10086000FF90EF90DF90CF90BF90AF909F908F90D0
:100870007F906F9008954CE1D9CFCF92DF92EF92A5
:10088000FF92C090FA01D090FB01E090FC01F09043
:10089000FD01C616D706E806F90671F06B017C016A
:1008A00048E752E00E946103C092FA01D092FB0136
:1008B000E092FC01F092FD01FF90EF90DF90CF906D
:1008C000089560E0809128030E94F9018BE090E098
:1008D0000197F1F70895CF93DF93C091280360E06B
:1008E0008C2F0E94F90161E08C2F0E942702D09189
:1008F000260360E08D2F0E94F90161E08D2F0E9498
:10090000270261E0809127030E94270261E08C2F7B
:100910000E94F9018BE090E00197F1F7DF91CF9110
:100920000895089590E080E00895FB010190002073
:10093000E9F73197AF01461B570BDC01ED91FC91B4
:100940000280F381E02D0994CF93C0E169ED71E05D
:100950008091290390912A030E949504C150B1F718
:10096000CF9108954F925F926F927F928F929F9254
:10097000AF92BF92CF92DF92EF92FF920F931F93AD
:10098000CF93DF93CDB7DEB7A1970FB6F894DEBF54
:100990000FBECDBF8C016B01770FEE08FF08F7FE8D
:1009A00049C0DC01ED91FC910190F081E02D6DE2F8
:1009B00009955C0122273327A9012C193D094E090D
:1009C0005F0919A2FE01B1967F019AE0492E512CD0
:1009D000612C712CCA01B901A30192010E94411836
:1009E000605DD7016E937D012115310541055105EB
:1009F00089F790E080E0109721F0BD01C8010E94C6
:100A000095048A0D9B1DA1960FB6F894DEBF0FBE0C
:100A1000CDBFDF91CF911F910F91FF90EF90DF90AD
:100A2000CF90BF90AF909F908F907F906F905F908E
:100A30004F900895A701960119A2FE01B1967F017A
:100A40008AE0882E912CA12CB12CCA01B901A501F4
:100A500094010E944118605DD7016E937D012115BC
:100A600031054105510589F790E080E0109759F272
:100A7000BD01C8010E949504C6CF4F925F926F924C
:100A80007F92AF92BF92CF92DF92EF92FF920F933D
:100A90001F93CF93DF93EC010E94580208851985BC
:100AA0002A853B85060F171F281F391F053611059C
:100AB0002105310508F471C08C818E3008F08E500C
:100AC0008770806480937C0080917A00806480933A
:100AD0007A0080917A0086FDFCCF80917800C090EA
:100AE0007900DC2CC82E8E01F12CE12C20E05E0177
:100AF0008EE7A80EB11CF50180819181E816F906F8
:100B00000CF09CC0F8018489958904968C159D058C
:100B10000CF491C0828993890497C816D9060CF405
:100B20008AC0828D811148C02E853F858089918938
:100B30002817390709F040C00E94580248805980A0
:100B40006A807B806419750986099709F8014688CF
:100B50005788608C718C461657066806790660F5D2
:100B60008BE08E9DD0018F9DB00D1124AC0FBD1F69
:100B700081E05A968C935A97FE01E058FF4F0190FE
:100B8000F081E02D61E050968D919C9109950E9435
:100B90005802688779878A879B87DF91CF911F9159
:100BA0000F91FF90EF90DF90CF90BF90AF907F902C
:100BB0006F905F904F900895F801208931898E855C
:100BC0009F858217930739F421E0FFEFEF1AFF0AA0
:100BD000055F1F4F90CF8C859D8501969D878C87E3
:100BE0004E815F81841795077CF33F872E871D8692
:100BF0001C860E945802688379838A839B836E8552
:100C00007F858FE792E00E94B20460E471E08FE795
:100C100092E00E9495048BE08E9DD0018F9DB00DD7
:100C20001124AC0FBD1FFE01E058FF4F0190F08171
:100C3000E02D60E0A8CFF801128EC7CF2111A7CF19
:100C40008FEF9FEF9F878E87A2CFFF920F931F9307
:100C5000CF93DF93D0E0C0E0082F10E0B8010C2E56
:100C600002C0759567950A94E2F761708091270339
:100C70000E94F901F090260361E08F2D0E94F90196
:100C800060E08F2D0E94F9012196C830D10531F71F
:100C9000DF91CF911F910F91FF900895BF92CF9256
:100CA000DF92EF92FF920F931F93CF93DF93B09059
:100CB000270360E08B2D0E94270210E000E0C0E0D7
:100CC000C12CD12C7601C3948B2D0E94D001B70189
:100CD000A601002E04C0440F551F661F771F0A94FB
:100CE000D2F7892BD9F0C42BD091260361E08D2F48
:100CF0000E94F90160E08D2F0E94F9010F5F1F4FE4
:100D00000830110509F78C2FDF91CF911F910F91BA
:100D1000FF90EF90DF90CF90BF9008954095C4234F
:100D2000E3CF2F923F924F925F926F927F928F927A
:100D30009F92AF92BF92CF92DF92EF92FF920F936A
:100D40001F93CF93DF93CDB7DEB72A970FB6F894F2
:100D5000DEBF0FBECDBF0E946B048FEB0E94250645
:100D60008E010F5F1F4F7E0129E0E20EF11C0E94F1
:100D70004E06D8018D938D01EA16FB06C1F70E943D
:100D800061049981292F229527708AE09F70289FFE
:100D9000900D11249A872A813B81AC819D81EA853F
:100DA000EC3308F094C0422F429547702F70222EEA
:100DB000489F200C1124FBE3F21508F488C0232F70
:100DC000229523703F70332E289F300C112427E189
:100DD000231508F47CC02A2F22952370AF70289F1A
:100DE000A00D1124A9872A2F21502F3108F06FC0A0
:100DF00094FB222720F99F70892E289F800C1124B4
:100E00009FEF980D9C3008F062C09E8197709150C2
:100E1000973008F05CC02F81922F92959F702F70B1
:100E2000225E122F989F100D1124143608F04FC027
:100E3000A12FB0E020E833E341EE51E00E94D0174B
:100E40002B013C01E2EBF7E09D0104E610E080E9B4
:100E5000E82EFF24F394CF01825B9740821793071B
:100E60000CF451C02E54384FC90164E670E00E9462
:100E70002D187C01C90160E971E00E942D186C01F8
:100E800006E111E0E1E0F0E0912C590143E0A422F9
:100E9000BB24E815F9050CF05FC0E230F10509F05C
:100EA0004CC0A114B10409F048C0E114F10421F4CC
:100EB000C114D10409F041C090E8490E9BE3591ECA
:100EC00096E2691E711C31960F5F1F4FE2CF60E002
:100ED00070E0CB012A960FB6F894DEBF0FBECDBFEF
:100EE000DF91CF911F910F91FF90EF90DF90CF9006
:100EF000BF90AF909F908F907F906F905F904F903A
:100F00003F902F900895CF0183709927892B99F4F2
:100F1000CF01B8010E942D18892B31F4CF01B70100
:100F20000E942D18892B39F480E8480E81E5581E5F
:100F300081E0681E711C31968ECFD8018C91A82F4C
:100F4000B0E020E831E541E050E00E94D017460EC5
:100F5000571E681E791EB7CF232D30E0A0E1BEE0FA
:100F60000E9412186B017C01222D30E0ACE3B0E04E
:100F70000E941218C60ED71EE81EF91EEA85CE0E74
:100F8000D11CE11CF11CE985E150FF0BDF0120E8D9
:100F900031E541E050E00E9463186C0D7D1D8E1D0F
:100FA0009F1D640D751D861D971D94CFCF93DF93F4
:100FB000EC0160E08E810E94F90161E08E810E9467
:100FC000F90160E08E810E94F9018BE891E00197C0
:100FD000F1F7DF91CF910895CF92DF92EF92FF92D8
:100FE0000F931F93CF93DF936C017C0187E0E80E92
:100FF000F11CD0E0C0E0062F10E0B8010C2E02C0BA
:10100000759567950A94E2F76170F70181917F0108
:101010000E94F9012196C430D10579F7C601DF910C
:10102000CF911F910F91FF90EF90DF90CF900C9494
:10103000D607CF92DF92EF92FF920F931F93CF9339
:10104000DF93EC01F62E642F8C810E94F9018D81D3
:101050008F3F19F060E00E94F9010F2D10E08F859D
:1010600084FF25C06E0187E0C80ED11CF12CE12C55
:10107000B8010E2C02C0759567950A94E2F761706D
:10108000F60181916F010E94F901FFEFEF1AFF0A4B
:1010900088E0E816F10461F7CE01DF91CF911F914E
:1010A0000F91FF90EF90DF90CF900C94D607B8018E
:1010B00084E0759567958A95E1F7CE010E94EC076B
:1010C0006F2DCE01DF91CF911F910F91FF90EF9087
:1010D000DF90CF900C94EC0741E00E94190881E06A
:1010E00090E0089540E00C941908FC012389421710
:1010F00010F04FEF420FFC01E40FF11D2489620F45
:1011000060680C94720861E00E9472088BE39FE1B2
:101110000197F1F708950F931F93CF93DF93EC019D
:10112000623019F48F8588608F876B8B1C8A80E40E
:101130008D8B80E18E8B80E58F8B61E08C810E94AE
:1011400027028D818F3F19F061E00E94270261E044
:101150008E810E9427028E0198012C1B3D0B8F85EA
:1011600084FD0DC084E090E00F5F1F4F2817390702
:101170004CF461E0F80186810E942702EDCF88E0FF
:1011800090E0F2CF8BE39DE00197F1F760E08C8176
:101190000E94F90160E08E810E94F9018D818F3FEC
:1011A00019F060E00E94F9016F8564FD34C063E0CE
:1011B000CE010E94EC070BE416E4C8010197F1F799
:1011C00063E0CE010E94EC07C8010197F1F763E0EC
:1011D000CE010E94EC0783E592E00197F1F762E00F
:1011E000CE010E94EC076F856062CE010E947208FA
:1011F00084E0888B6CE0CE010E947208CE010E94D0
:10120000830882E0898B66E0CE01DF91CF911F9148
:101210000F910C9472086062CE010E9472088BE4F8
:1012200096E40197F1F76F856062CE010E94720823
:1012300083E592E00197F1F76F856062CE010E942D
:101240007208D1CFCF93DF93EC0188819981009709
:1012500011F00E942119198218821D821C821B82A2
:101260001A82DF91CF910895FC01808191810097CE
:1012700011F00C94211908950F931F93CF93DF93CE
:10128000EC0188819981009759F02A813B812617CA
:10129000370730F081E0DF91CF911F910F910895D2
:1012A0008B016F5F7F4F0E94AA19009759F09983B5
:1012B00088831B830A832C813D81232B59F7FC01F2
:1012C0001082E8CF80E0E7CFEF92FF920F931F9359
:1012D000CF93DF936115710541F480E0DF91CF91E9
:1012E0001F910F91FF90EF90089541155105B1F0B6
:1012F0007B01EC010C811D81040F151FB8010E94B8
:101300003C09882351F3288139818C819D81B70163
:10131000820F931F0E94701A1D830C8381E0DECF21
:10132000CF93DF93EC01FB0101900020E9F73197A7
:10133000AF01461B570B0E946409811103C0CE0107
:101340000E942209CE01DF91CF910895CF93DF93C0
:10135000EC01FB0144815581608171810E94640927
:10136000811103C0CE010E942209CE01DF91CF91ED
:101370000895EF92FF920F931F93CF93DF93EC01A9
:101380007B018A01BA010E943C0981110BC0CE0188
:101390000E942209CE01DF91CF911F910F91FF9002
:1013A000EF9008951D830C83B701888199810E9475
:1013B000701AF0CFEF92FF920F931F93CF93DF93AA
:1013C000CDB7DEB729970FB6F894DEBF0FBECDBFFD
:1013D0008C01862FF80111821082138212821582ED
:1013E00014824AE09E012F5F3F4F7901B90190E0DE
:1013F0000E949017F70101900020E9F73197AF01A3
:101400004E195F09B701C8010E94B90929960FB6A4
:10141000F894DEBF0FBECDBFDF91CF911F910F912A
:10142000FF90EF900895EF92FF920F931F93CF9349
:10143000DF93CDB7DEB762970FB6F894DEBF0FBE6D
:10144000CDBF8C01CB01F801118210821382128270
:10145000158214824AE09E012F5F3F4F7901B90146
:101460000E948517F70101900020E9F73197AF013D
:101470004E195F09B701C8010E94B90962960FB6FB
:10148000F894DEBF0FBECDBFDF91CF911F910F91BA
:10149000FF90EF900895CF92DF92EF92FF920F931B
:1014A0001F93CF93DF93CDB7DEB72C970FB6F89489
:1014B000DEBF0FBECDBF8C016B010A9764F4809133
:1014C000290390912A03DC01ED91FC910190F081B8
:1014D000E02D60E30995E0902903F0902A03B8011C
:1014E000CE0107960E94130A1A8219821C821B825F
:1014F0001E821D826F8178856115710531F04B85E3
:101500005C85CE0101960E94B909B601CE01019613
:101510000E94A609BC01C7010E946C01CE01019680
:101520000E943409CE0107960E9434092C960FB60A
:10153000F894DEBF0FBECDBFDF91CF911F910F9109
:10154000FF90EF90DF90CF900895FC011182108200
:101550001382128215821482FB0101900020E9F7A8
:101560003197AF01461B570B0C94B9090C94BA176D
:10157000FF920F931F93CF93DF930E94BF020E94AD
:101580003D0480917802811133C0C3E0D0E0CE01E8
:101590000E94B60AF82ECE0101960E94B60A082FC4
:1015A000CE0102960E94B60A182F0E94BF020E9426
:1015B0003D0480917A02F81231C00E94BF020E945D
:1015C0003D0480917902081329C00E94BF020E9445
:1015D0003D04812F90E020917B0202C09595879574
:1015E0002A95E2F780FF1AC061E08AE00E94F901C3
:1015F0000E94BF020E943D04809178028630A0F0D4
:101600008AE00E94D001892B79F060E08AE0DF91C6
:10161000CF911F910F91FF900C94F9012396CD3536
:10162000D10509F0B4CFE4CFDF91CF911F910F9195
:10163000FF900895EF92FF920F931F93CF93DF9344
:10164000CDB7DEB728970FB6F894DEBF0FBECDBF7B
:1016500080915203882309F440C040E060E080910B
:10166000290390912A030E94750863E471E0809138
:10167000290390912A030E94950441E060E0809143
:10168000290390912A030E9475080E94A40441E056
:1016900060E08091290390912A030E94750880914F
:1016A0005303609150037091510396E0899F600D40
:1016B000711D11248091290390912A030E946C01CD
:1016C00028960FB6F894DEBF0FBECDBFDF91CF9145
:1016D0001F910F91FF90EF90089580915503909185
:1016E00056038130910509F056C140E060E08091D9
:1016F000290390912A030E94750866ED71E080919C
:10170000290390912A030E94950464E571E0CE01BB
:1017100001960E94A50A80913703BE016F5F7F4F3B
:1017200090E00E944B0ACE0101960E94340964E5C4
:1017300071E0CE0101960E94A50A80913803BE0196
:101740006F5F7F4F90E00E944B0ACE0101960E948E
:10175000340967ED71E0CE0101960E94A50A8091DF
:10176000390390E0BE016F5F7F4F8E54984F0E9407
:101770004B0ACE0101960E94340941E060E080915D
:10178000290390912A030E94750868ED71E0809109
:10179000290390912A030E94950466E571E0CE0129
:1017A00001960E94A50A80913503BE016F5F7F4FAD
:1017B00090E00E944B0ACE0101960E94340966E532
:1017C00071E0CE0101960E94A50A80913403BE010A
:1017D0006F5F7F4F90E00E944B0ACE0101960E94FE
:1017E000340968E571E0CE0101960E94A50A809156
:1017F0003303BE016F5F7F4F90E00E944B0ACE0122
:1018000001960E94340980915403863008F4A5C0E3
:101810000E946B048FE80E9425060E944E06182F36
:101820000E9461040E946B048EE80E942506812FAD
:101830008F770E9425060E9461040E946B048FE846
:101840000E9425060E944E06182F0E94610417FD73
:1018500057C0809133032AE0622F0E94211882959D
:10186000807F980F9983809134030E94211882957C
:10187000807F980F9A83809135030E94211882956A
:10188000807F980F9B83809137030E942118829557
:10189000807F980F9C83809138030E942118829545
:1018A000807F980F9D83809136038E8380913903CA
:1018B0008E510E9421188295807F980F9F8380E827
:1018C00088870E946B048EEB0E9425068E010F5FB5
:1018D0001F4F7E01E9E0EE0EF11CF80181918F01AE
:1018E0000E942506E016F106C1F70E9461040E94DD
:1018F0006B048FE80E9425060E944E060E94610438
:1019000081E996E09093250380932403809120033E
:1019100090912103A0912203B091230380931C0393
:1019200090931D03A0931E03B0931F030E94BF0258
:101930008091290390912A03FC0160896E7F608B5E
:1019400068600E947208109256031092550310921C
:101950005203109254030E94600D20915403809111
:10196000290390912A03E22FF0E0E75DFC4F67899D
:1019700040E0233008F041E00E947508809129037F
:1019800090912A03FC016089262F2160208B6960D9
:101990000E94720895CE029709F08FC040E060E087
:1019A0008091290390912A030E9475086FE571E0E8
:1019B0008091290390912A030E94950400913F038E
:1019C000F3E00F9F80011124C8010E94B60A8093A2
:1019D0003D03C80101960E94B60A80933E03C801E8
:1019E00002960E94B60A80933C0341E060E0809139
:1019F000290390912A030E94750869ED71E0CE01D8
:101A000001960E94A50A80913F03BE016F5F7F4F40
:101A100090E00E944B0ACE0101960E94340966E5CF
:101A200071E0CE0101960E94A50A80913D038831A4
:101A300008F080E0BE016F5F7F4F90E00E944B0A8C
:101A4000CE0101960E94340969ED71E0CE01019644
:101A50000E94A50A80913E038C3308F080E0BE010D
:101A60006F5F7F4F90E00E944B0ACE0101960E946B
:101A7000340901E010E060913C0370E0002E02C0E8
:101A8000759567950A94E2F761707727809129032D
:101A900090912A030E94B2040F5F1F4F0830110576
:101AA00051F7E0915403F0E0E75DFC4F41E0658DB4
:101AB0008091290390912A035FCF0E94600D00CE90
:101AC0004F925F926F927F92BF92CF92DF92EF928E
:101AD000FF920F931F93CF93DF93CDB7DEB7AA97F3
:101AE0000FB6F894DEBF0FBECDBF80912903909151
:101AF0002A030E94830860E771E080912903909196
:101B00002A030E94950441E060E0809129039091AE
:101B10002A030E9475088E01015E1F4F80E1E82EA6
:101B2000F12C96E0B92E0E94B80A80912B03909177
:101B30002C030E943D05809152038111D3C00E9465
:101B4000580240902F035090300360903103709002
:101B500032036419750986099709693C7105810585
:101B6000910508F4B8C00E94580260932F03709347
:101B70003003809331039093320381E0E81AF10837
:101B80000E94A40441E06E2D8091290390912A03C4
:101B90000E9475080E94910643E353E00E9461038E
:101BA000C0902903D0902A0360913403CE0101969E
:101BB0000E94DA0960913503CE0107960E94DA0986
:101BC0006091390370E06E54784FCE010D960E94FB
:101BD000130A60913803CE0143960E94DA0960919E
:101BE0003703CE0149960E94DA09E0913603EB9D56
:101BF000C00111240697E0913A03F0913B03E80FEE
:101C0000F91F18A21F8E1AA219A21CA21BA2E0176C
:101C1000F10751F0608171816115710529F04481EE
:101C20005581C8010E94B90960E871E0CE0185962E
:101C30000E94A50AB801CE0185960E94A609BE01A0
:101C4000675E7F4F0E94A60964E571E00E949009DB
:101C5000BE016D5E7F4F0E94A60964E571E00E949F
:101C60009009BE01635F7F4F0E94A60962E871E0A0
:101C70000E949009BE01695F7F4F0E94A60966E538
:101C800071E00E949009BE016F5F7F4F0E94A6091C
:101C900065E871E00E949009BC01C6010E946C01D8
:101CA000CE0185960E943409C8010E943409CE01F4
:101CB00049960E943409CE0143960E943409CE0110
:101CC0000D960E943409CE0107960E943409CE0178
:101CD00001960E94340981EFE8168FEFF8060CF0A8
:101CE00022CF1CCF0E941A0BAA960FB6F894DEBF23
:101CF0000FBECDBFDF91CF911F910F91FF90EF905D
:101D0000DF90CF90BF907F906F905F904F9008953D
:101D1000FF920F931F93CF93DF93EC01F62E088170
:101D20001981C8010E94BA17F81621F06F2DC80159
:101D30000E94C217CE01DF91CF911F910F91FF90AA
:101D40000895FF920F931F93CF93DF9300D0CDB7E9
:101D5000DEB709E213E0F8016489868993E0F92E81
:101D60008F9DC00111249A838983CE0101960E9420
:101D7000880EF801658986898F9DC001112401961E
:101D80009A838983CE0101960E94880EF8016389A7
:101D900086898F9DC001112402969A838983CE0182
:101DA00001960E94880E0F900F90DF91CF911F91A6
:101DB0000F91FF900895DF92EF92FF920F931F9380
:101DC000CF93DF9300D000D000D0CDB7DEB7823004
:101DD000910509F41CC28330910509F42CC40197C4
:101DE00009F06EC380915203882349F08091530318
:101DF00081118150809353030E941A0B61C380911B
:101E00005503909156039C01215031092230310530
:101E100008F056C3019769F480915403823009F4A5
:101E2000DFC008F059C0882309F48BC0813009F461
:101E3000BBC08091550390915603029709F040C3AF
:101E4000D0905403E0902903F0902A0381E0D81643
:101E500009F49CC1D81608F412C1E2E0DE1609F4B8
:101E6000B9C18D2D90E020913C03DC01129741E037
:101E700050E060E070E00A2E04C0440F551F661F5A
:101E8000771F0A94D2F7E22FF0E002C0F595E795AC
:101E9000AA95E2F7E0FDB8C1422B40933C03875D71
:101EA0009C4F41E0FC01658DC7010E94750860915F
:101EB0003C0370E0809154038250990B02C07595E9
:101EC00067958A95E2F76170772780912903909151
:101ED0002A030E94B2044AC1833009F499C08430B5
:101EE00009F0A7CF809134038F5F8C3308F0C4C012
:101EF00080933403E0915403F0E0E75DFC4F678981
:101F0000615041E08091290390912A030E94750855
:101F100062E471E0CE0101960E94A50A809134032B
:101F2000BE016F5F7F4F90E00E944B0ACE01019689
:101F30000E943409E0915403F0E0E75DFC4F41E07A
:101F400029C0809137038F5F803260F5809337031B
:101F500060914003615040E08091290390912A03F1
:101F60000E94750862E471E0CE0101960E94A50A04
:101F700080913703BE016F5F7F4F90E00E944B0A54
:101F8000CE0101960E943409E0915403F0E0E75D30
:101F9000FC4F40E067898091290390912A030E94B9
:101FA000750847CF81E0D2CF809138038F5F8D30A5
:101FB000A8F48093380360914103615040E0809120
:101FC000290390912A030E94750862E471E0CE0112
:101FD00001960E94A50A80913803CCCF81E0E9CF19
:101FE000809139038F5F809339036091420363507E
:101FF00040E08091290390912A030E94750862E4D1
:1020000071E0CE0101960E94A50A80913903B2CFFA
:10201000809135038F5F883160F58093350360913F
:102020004303615041E08091290390912A030E946B
:10203000750862E471E0CE0101960E94A50A8091C4
:102040003503BE016F5F7F4F90E00E944B0ACE01C7
:1020500001960E943409E0915403F0E0E75DFC4FE3
:1020600041E067898091290390912A030E947508B5
:1020700039CF10923503D3CF109234033BCF009168
:102080003F03003108F080C00F5F00933F03F3E08F
:102090000F9F80011124C8010E94B60A80933D035E
:1020A000C80101960E94B60A80933E03C8010296B9
:1020B0000E94B60A80933C0341E060E0C7010E94A1
:1020C000750869ED71E0CE0101960E94A50A809124
:1020D0003F03BE016F5F7F4F90E00E944B0ACE012D
:1020E00001960E94340966E571E0CE0101960E94D6
:1020F000A50A80913D03883108F08D2DBE016F5FE8
:102100007F4F90E00E944B0ACE0101960E94340955
:1021100069ED71E0CE0101960E94A50A80913E030F
:102120008C3308F4D82EBE016F5F7F4F8D2D90E069
:102130000E944B0ACE0101960E94340901E010E092
:1021400060913C0370E0002E02C0759567950A947B
:10215000E2F7617077278091290390912A030E940A
:10216000B2040F5F1F4F0830110551F7E09154037F
:10217000F0E0E75DFC4F41E0658D8091290390918F
:102180002A030E9475089CC100E07FCF80913D0327
:102190008F5F80933D0360914703615041E0C70129
:1021A0000E94750862E471E0CE0101960E94A50AC2
:1021B00080913D03883108F080E080933D03BE01AB
:1021C0006F5F7F4F90E00E944B0ACE0101960E9404
:1021D0003409CCCF80913E038F5F80933E036091A2
:1021E0004803615041E0C7010E94750862E471E054
:1021F000CE0101960E94A50A80913E038C3308F01F
:1022000080E080933E03DBCF4095422346CE809111
:102210005203882341F080915303823010F48F5F82
:10222000E9CD82E0E7CD80915503909156039C0162
:10223000215031092230310508F042C1019769F47B
:1022400080915403823009F4C9C008F03FC088234C
:1022500009F46DC0813009F48FC0809155039091CD
:102260005603029709F02CC120915403213009F440
:10227000ABC108F4FEC08091290390912A0322305B
:1022800009F4BEC130E0E0913C038901025011091C
:1022900041E050E060E070E0002E04C0440F551FA4
:1022A000661F771F0A94D2F7AE2FB0E002C0B59533
:1022B000A7950A95E2F7A0FDBBC14E2B40933C03C6
:1022C000275D3C4F41E0F901658DEFCD833009F486
:1022D000A1C0843011F6809134038150809334037F
:1022E000E0915403F0E0E75DFC4F6789615041E005
:1022F0008091290390912A030E94750862E471E09D
:10230000CE0101960E94A50A80913403BE016F5F41
:102310007F4F90E00E944B0ACE0101960E94340943
:10232000E0915403F0E0E75DFC4F41E04DC0809147
:1023300037038150F9F08093370360914003615077
:1023400040E08091290390912A030E94750862E47D
:1023500071E0CE0101960E94A50A80913703BE016B
:102360006F5F7F4F90E00E944B0ACE0101960E9462
:10237000340973CF8FE1DFCF80913803815061F151
:102380008093380360914103615040E080912903BC
:1023900090912A030E94750862E471E0CE010196D3
:1023A0000E94A50A80913803BE016F5F7F4F90E0C5
:1023B0000E944B0ACE0101960E943409E091540319
:1023C000F0E0E75DFC4F40E0678980912903909140
:1023D0002A030E94750841CF8CE0D2CF8091390347
:1023E00081508D32A8F0809339036091420363508D
:1023F00040E08091290390912A030E94750862E4CD
:1024000071E0CE0101960E94A50A80913903CCCFDC
:102410008DE2E9CF8091350381508093350360913F
:102420004303615041E08091290390912A030E9467
:10243000750862E471E0CE0101960E94A50A8091C0
:102440003503BE016F5F7F4F90E00E944B0ACE01C3
:1024500001960E943409E0915403F0E0E75DFC4FDF
:1024600041E067898091290390912A030E947508B1
:1024700032CF00913F03015000933F0301112EC062
:102480000E94A404109256031092550311E0109379
:10249000520382E08093530341E062E0809129037C
:1024A00090912A030E94750867E871E080912903E2
:1024B00090912A030E9495040E94A10E10933F035D
:1024C00026960FB6F894DEBF0FBECDBFDF91CF9139
:1024D0001F910F91FF90EF90DF900895F3E00F9F11
:1024E00080011124C8010E94B60A80933D03C801EF
:1024F00001960E94B60A80933E03C80102960E948C
:10250000B60A80933C0341E060E0809129039091FA
:102510002A030E94750869ED71E0CE0101960E94C0
:10252000A50A80913F03BE016F5F7F4F90E00E943C
:102530004B0ACE0101960E94340966E571E0CE0196
:1025400001960E94A50A80913D03883108F080E041
:1025500080933D03BE016F5F7F4F90E00E944B0A66
:10256000CE0101960E94340969ED71E0CE01019619
:102570000E94A50A80913E038C3308F080E080938E
:102580003E03BE016F5F7F4F90E00E944B0ACE0179
:1025900001960E94340901E010E060913C0370E074
:1025A000002E02C0759567950A94E2F7617077274F
:1025B0008091290390912A030E94B2040F5F1F4F5C
:1025C0000830110551F7D2CD80913D0381508093A1
:1025D0003D0360914703615041E080912903909150
:1025E0002A030E94750862E471E0CE0101960E9400
:1025F000A50A80913D03883108F4DFCD87E1DDCD68
:1026000020913E03215020933E0360914803615086
:1026100041E00E94750862E471E0CE0101960E94DB
:10262000A50A80913E038C3308F4EBCD8BE3E9CD12
:1026300040954E2343CE80915503909156038130AF
:10264000910551F480915403863020F48F5F80937C
:102650005403D2CB80E0FBCF029761F48091540306
:102660008A3030F48F5F809354030E94A10EC4CB54
:1026700080E0F9CF9091530380915203911107C0EC
:1026800021E030E0811109C023E030E006C0913044
:10269000D9F722E030E08823B9F330935603209332
:1026A00055031092530391E0892780935203A4CBE2
:1026B0001F920F920FB60F9211242F933F934F93B7
:1026C0005F936F937F938F939F93AF93BF93EF939A
:1026D000FF938FE792E00E94C900FF91EF91BF91B5
:1026E000AF919F918F917F916F915F914F913F91AA
:1026F0002F910F900FBE0F901F9018951F920F9261
:102700000FB60F9211242F938F939F93EF93FF9304
:10271000E0918F02F09190028081E0919502F0911A
:10272000960282FD1BC09081809198028F5F8F730B
:1027300020919902821741F0E0919802F0E0E1586F
:10274000FD4F958F80939802FF91EF919F918F910C
:102750002F910F900FBE0F901F9018958081F4CF8E
:102760001F920F920FB60F9211242F933F938F93C6
:102770009F93AF93BF938091740290917502A09143
:102780007602B09177023091730223E0230F2D3748
:1027900058F50196A11DB11D209373028093740218
:1027A00090937502A0937602B093770280916F02A6
:1027B00090917002A0917102B09172020196A11DD8
:1027C000B11D80936F0290937002A0937102B09339
:1027D0007202BF91AF919F918F913F912F910F9076
:1027E0000FBE0F901F90189526E8230F0296A11D8B
:1027F000B11DD2CF1F920F920FB60F9211242F93BB
:102800003F934F935F936F937F938F939F93AF9378
:10281000BF93EF93FF938091B900887F803609F4CE
:102820004AC0F0F5883209F4A5C018F5803109F4E2
:1028300099C0B8F4882309F4F5C0883009F492C02F
:10284000FF91EF91BF91AF919F918F917F916F9188
:102850005F914F913F912F910F900FBE0F901F905E
:102860001895883109F486C0803251F78093480268
:1028700014C0803409F49BC040F48033B9F388332A
:10288000F9F68093480285ECAEC0803509F483C028
:10289000883509F494C0883499F60E946402D0CF38
:1028A000883909F48AC038F5883729F050F4883619
:1028B00011F0803729F683E0809349021092470295
:1028C00055C0883809F479C0803919F0803809F08A
:1028D000B7CF80914702803208F06FC0E091470285
:1028E00081E08E0F809347028091BB00F0E0E95DAC
:1028F000FD4F80833BC0803B39F0D0F4803A09F42F
:1029000077C0883A09F09CCF84E080934902109206
:10291000260210922502F0E0E0E009958091250260
:1029200081110FC081E0809325021092050209C039
:10293000803C09F4A8CF883C09F4A5CF883B09F076
:102940007FCFE091260281E08E0F80932602F0E097
:10295000EB5FFD4F80818093BB00909126028091B8
:10296000250229C080916E028093BB0085EC809384
:10297000BC0066CF90916D0280916C02981758F55B
:10298000E0916D0281E08E0F80936D02F0E0E45BD8
:10299000FD4F8081E9CFE0916D0281E08E0F809341
:1029A0006D028091BB00F0E0E45BFD4F808390916D
:1029B0006D0280916C029817C8F285E8D8CFE0913B
:1029C0006D0281E08E0F80936D028091BB00F0E07C
:1029D000E45BFD4F808380914B0281115ECF81E0EB
:1029E00080934A0284EA8093BC001092490228CF67
:1029F00085EC8093BC00109249028091470280329E
:102A000030F4E0914702F0E0E95DFD4F1082609103
:102A1000470270E087E292E0F0E0E0E00995109272
:102A200047020ECF1092480238CF8F929F92AF92FA
:102A3000BF92DF92EF92FF920F931F93CF93DF939A
:102A4000CDB7DEB7A1970FB6F894DEBF0FBECDBFEE
:102A5000109282021092810288EE882E83E0982ED6
:102A6000A12CB12C8092830290928402A0928502C4
:102A7000B092860286E291E09093800280937F027A
:102A800085EC90E090938C0280938B0284EC90E034
:102A900090938E0280938D0280EC90E09093900250
:102AA00080938F0281EC90E0909392028093910248
:102AB00082EC90E0909394028093930286EC90E0F5
:102AC0009093960280939502109298021092990228
:102AD00010929A0210929B021092DD031092DC0376
:102AE00088E391E09093DB038093DA0389E080939D
:102AF000DE038FEF8093DF039BE0D92ED092E003BB
:102B000085E08093E10384E08093E20383E0809397
:102B1000E30382E08093E4031092E5031092E6035E
:102B20001092E7031092E8031092E90361E08AED46
:102B300093E00E948B088EE090E090935D03809379
:102B40005C038BED9EE09093D9038093D80384E6D9
:102B500090E090935F0380935E0310926503109260
:102B6000640381E18093280382E18093270383E15A
:102B70008093260310922F0310923003109231039A
:102B80001092320310923C0310923D0310923E03C8
:102B900086E0E6E0F1E0A0E4B3E001900D928A95D2
:102BA000E1F78AE0ECE0F1E0A6E4B3E001900D92F9
:102BB0008A95E1F761E08AE00E94270288E593E0C8
:102BC00090932C0380932B038AED93E090932A0338
:102BD0008093290387E593E090932E0380932D0340
:102BE00081E996E09093250380932403809120034C
:102BF00090912103A0912203B091230380931C03A1
:102C000090931D03A0931E03B0931F030E94BF0265
:102C10008CE290E00E9485188C0187E090E0F8013A
:102C2000819391937F016EE871E0CF010E94A50A24
:102C300063E971E0C80108960E94A50A68E971E09D
:102C4000C8010E960E94A50A6DE971E0C80144967C
:102C50000E94A50A62EA71E0C8014A960E94A50A8C
:102C600067EA71E0C80180960E94A50A6BEA71E0EC
:102C7000C80186960E94A50AF0923B03E0923A03AF
:102C800084E190E00E9485187C0183E090E0F701E8
:102C9000819391938F0160EB71E0CF010E94A50AAF
:102CA0006FEB71E0C70108960E94A50A6FEC71E016
:102CB000C7010E960E94A50A10935103009350037A
:102CC0001092540381E080933F0380912B039091F5
:102CD0002C0321E030E03A8329831C821B8222E30B
:102CE00030E03E832D838F829886A986BA869C0128
:102CF00022583F4FF901408151814A305105A4F4D7
:102D0000D49ED001D59EB00D1124A80FB91F5096A6
:102D10006BE0FE01319601900D926A95E1F74F5FED
:102D20005F4FF9015183408342E050E05D874C875B
:102D30004AEE51E05F874E874AE352E0598B488B59
:102D400048EE53E060E070E04A8B5B8B6C8B7D8BD0
:102D5000F901408151814A305105A4F46BE0649F30
:102D6000D001659FB00D1124A80FB91F5096FE0128
:102D70003C9601900D926A95E1F74F5F5F4FF90124
:102D80005183408343E050E0588F4F8B48E552E039
:102D90005A8F498F4EEE52E05C8F4B8F48EE53E0D6
:102DA00060E070E04D8F5E8F6F8F78A3F9014081F6
:102DB00051814A305105A4F46BE0649FD001659FB6
:102DC000B00D1124A80FB91F5096FE0177960190FF
:102DD0000D926A95E1F74F5F5F4FF9015183408390
:102DE00062E08091290390912A030E948B088091D0
:102DF000290390912A030E9483086BED71E0809172
:102E0000290390912A030E94950441E060E080919B
:102E1000290390912A030E9475086AEE71E080915F
:102E2000290390912A030E9495040E94910643E38E
:102E300053E00E9461031092560310925503A1962D
:102E40000FB6F894DEBF0FBECDBFDF91CF911F91BB
:102E50000F91FF90EF90DF90BF90AF909F908F9079
:102E60000895789484B5826084BD84B5816084BD02
:102E700085B5826085BD85B5816085BD80916E0018
:102E8000816080936E001092810080918100826049
:102E90008093810080918100816080938100809186
:102EA00080008160809380008091B1008460809375
:102EB000B1008091B00081608093B00080917A0071
:102EC000846080937A0080917A00826080937A0097
:102ED00080917A00816080937A0080917A00806886
:102EE00080937A001092C100C0E0D0E088E593E0C2
:102EF0000E943D050E94B80A2097C1F30E94580124
:102F00008823A1F30E940000F1CFBB274A3031F49F
:102F1000992322F4BDE2909581959F4F0C949117CF
:102F2000BB27FB015527AA27880F991FAA1FA417A3
:102F300010F0A41B83955051B9F7A05DAA3308F097
:102F4000A95DA193009779F7B111B1931192CB01CB
:102F50000C94AA17DC01FC01672F71917723E1F72C
:102F6000329704C07C916D9370836291AE17BF0756
:102F7000C8F30895F999FECF92BD81BDF89A9927BB
:102F800080B50895262FF999FECF1FBA92BD81BD55
:102F900020BD0FB6F894FA9AF99A0FBE01960895DB
:102FA0000E941218A59F900DB49F900DA49F800DB4
:102FB000911D112408952F923F924F925F926F922C
:102FC0007F928F929F92AF92BF92CF92DF92EF92B9
:102FD000FF920F931F93CF93DF93CDB7DEB7CA1B3A
:102FE000DB0B0FB6F894DEBF0FBECDBF09942A8865
:102FF000398848885F846E847D848C849B84AA840D
:10300000B984C884DF80EE80FD800C811B81AA8199
:10301000B981CE0FD11D0FB6F894DEBF0FBECDBF64
:10302000ED010895A29FB001B39FC001A39F700D51
:10303000811D1124911DB29F700D811D1124911DC0
:103040000895991B79E004C0991F961708F0961B04
:10305000881F7A95C9F78095089597FB072E16F477
:10306000009407D077FD09D00E946B1807FC05D0AB
:103070003EF4909581959F4F0895709561957F4F8F
:103080000895A1E21A2EAA1BBB1BFD010DC0AA1FA9
:10309000BB1FEE1FFF1FA217B307E407F50720F0C1
:1030A000A21BB30BE40BF50B661F771F881F991F3C
:1030B0001A9469F760957095809590959B01AC0185
:1030C000BD01CF010895B7FF0C94D0170E94D0170F
:1030D000821B930B0895AA1BBB1B51E107C0AA1FBB
:1030E000BB1FA617B70710F0A61BB70B881F991FA9
:1030F0005A95A9F780959095BC01CD010895EE0FE2
:10310000FF1F0590F491E02D09940F931F93CF9327
:10311000DF938230910510F482E090E0E091F403B7
:10312000F091F50330E020E0B0E0A0E0309799F4B2
:103130002115310509F44AC0281B390B243031050B
:10314000D8F58A819B816115710589F1FB01938313
:103150008283FE0111C04081518102811381481791
:103160005907E0F04817590799F4109761F0129643
:103170000C93129713961C933296CF01DF91CF9147
:103180001F910F9108950093F4031093F503F4CF6A
:103190002115310551F04217530738F0A901DB0121
:1031A0009A01BD01DF01F801C1CFEF01F9CF909382
:1031B000F5038093F403CDCFFE01E20FF31F81935B
:1031C00091932250310939832883D7CF2091F2037C
:1031D0003091F303232B41F420910201309103013C
:1031E0003093F3032093F203209100013091010109
:1031F0002115310541F42DB73EB74091040150919E
:103200000501241B350BE091F203F091F303E21763
:10321000F307A0F42E1B3F0B2817390778F0AC01F9
:103220004E5F5F4F2417350748F04E0F5F1F5093D6
:10323000F3034093F203819391939FCFF0E0E0E09A
:103240009CCFCF93DF930097E9F0FC013297138274
:103250001282A091F403B091F503ED0130E020E07B
:103260001097A1F420813181820F931F2091F203E6
:103270003091F3032817390709F061C0F093F30385
:10328000E093F203DF91CF910895EA01CE17DF07B3
:10329000E8F54A815B819E0141155105B1F7E901CD
:1032A000FB83EA8349915991C40FD51FEC17FD07A1
:1032B00061F4808191810296840F951FE9019983C1
:1032C0008883828193819B838A83F0E0E0E0129679
:1032D0008D919C9113970097B9F52D913C91119781
:1032E000CD010296820F931F2091F2033091F303D8
:1032F0002817390739F6309751F51092F5031092D7
:10330000F403B093F303A093F203BCCFD383C2833F
:1033100040815181840F951FC817D90761F44E5F12
:103320005F4F88819981480F591F518340838A815B
:103330009B81938382832115310509F0B0CFF093EF
:10334000F503E093F4039ECFFD01DC01C0CF1382AF
:103350001282D7CFB0E0A0E0E0EBF9E10C94DD17EA
:103360008C01009751F4CB010E9485188C01C80193
:10337000CDB7DEB7E0E10C94F917FC01E60FF71FBB
:103380009C0122503109E217F30708F49DC0D901CE
:10339000CD91DC911197C617D70798F0C530D105AC
:1033A00030F3CE0104978617970708F3C61BD70B97
:1033B0002297C193D1936D937C93CF010E942119E1
:1033C000D6CF5B01AC1ABD0A4C018C0E9D1EA0919C
:1033D000F403B091F503512C412CF12CE12C109702
:1033E00031F58091F2039091F3038815990509F066
:1033F0005CC04616570608F058C0809100019091B5
:103400000101009741F48DB79EB74091040150919E
:103410000501841B950BE817F90708F055C0F093D8
:10342000F303E093F203F90171836083A0CF8D91E0
:103430009C91119712966C90129713967C9013970B
:10344000A815B90559F56C0142E0C40ED11CCA1487
:10345000DB0420F1AC014A195B09DA0112961597D9
:1034600080F06282738251834083D9016D937C9393
:10347000E114F10471F0D7011396FC93EE931297C7
:1034800076CF22968C0F9D1FF90191838083F301E3
:10349000EFCFF093F503E093F40369CF4816590694
:1034A00008F42C017D01D3019ACFCB010E9485182D
:1034B0007C01009749F0AE01B8010E94671AC8016B
:1034C0000E942119870153CF10E000E050CFFB018B
:1034D000DC0102C001900D9241505040D8F7089590
:1034E000FB01DC0101900D920020E1F70895F894B2
:0234F000FFCF0C
:1034F2000000F603800005080D03060C010407090D
:103502000A0B0C0D0E0F1F1C1F1E1F1E1F1F1E1F3E
:103512001E1F00000000EB007A018C003801BD0084
:103522009B00AF00000000006C087A019204910435
:103532000D0A002D2D2D2D2D204D656E75202D2D62
:103542002D2D2D002F003A0020203C6F6B3E0041B4
:103552004C20486575726520444C4D4D4A565300C7
:10356200436F6C204C616C61204D657279656D0012
:103572003C00205B005D003C536176653E0044697F
:103582006D20004C756E20004D617220004D6572F9
:1035920020004A6575200056656E0053616D20005B
:1035A2003E52656720446174652F48722020003EB8
:1035B20052656720616C61726D6573202020003E48
:1035C200536F727469652020202000202020205330
:1035D20063686F6F6C202020200020416C61726D47
:0A35E200652053797374656D2000B5
:00000001FF
